{
  "contractName": "Lottery",
  "abi": [
    {
      "constant": true,
      "inputs": [],
      "name": "ticket_price",
      "outputs": [
        {
          "name": "",
          "type": "uint256"
        }
      ],
      "payable": false,
      "stateMutability": "view",
      "type": "function",
      "signature": "0x19d41c69"
    },
    {
      "constant": true,
      "inputs": [],
      "name": "trusted_manager",
      "outputs": [
        {
          "name": "",
          "type": "address"
        }
      ],
      "payable": false,
      "stateMutability": "view",
      "type": "function",
      "signature": "0x48a526b4"
    },
    {
      "constant": true,
      "inputs": [],
      "name": "jackpot",
      "outputs": [
        {
          "name": "",
          "type": "uint256"
        }
      ],
      "payable": false,
      "stateMutability": "view",
      "type": "function",
      "signature": "0x6b31ee01"
    },
    {
      "constant": true,
      "inputs": [
        {
          "name": "",
          "type": "uint256"
        }
      ],
      "name": "all_games",
      "outputs": [
        {
          "name": "round_num",
          "type": "uint256"
        },
        {
          "name": "res",
          "type": "uint256"
        }
      ],
      "payable": false,
      "stateMutability": "view",
      "type": "function",
      "signature": "0x7be2d6d5"
    },
    {
      "constant": true,
      "inputs": [
        {
          "name": "",
          "type": "address"
        }
      ],
      "name": "registered_people_in_need",
      "outputs": [
        {
          "name": "",
          "type": "uint256"
        }
      ],
      "payable": false,
      "stateMutability": "view",
      "type": "function",
      "signature": "0xb83ff25f"
    },
    {
      "constant": true,
      "inputs": [],
      "name": "money_for_charity",
      "outputs": [
        {
          "name": "",
          "type": "uint256"
        }
      ],
      "payable": false,
      "stateMutability": "view",
      "type": "function",
      "signature": "0xc02dd5e5"
    },
    {
      "inputs": [],
      "payable": false,
      "stateMutability": "nonpayable",
      "type": "constructor",
      "signature": "constructor"
    },
    {
      "anonymous": false,
      "inputs": [
        {
          "indexed": false,
          "name": "winner",
          "type": "address"
        },
        {
          "indexed": false,
          "name": "description",
          "type": "string"
        }
      ],
      "name": "CongratulationToWinner",
      "type": "event",
      "signature": "0x54dd00ed807cc04e73aa7d7ca7fc5d2f8fb39facd1bbf6a92cda609039d9788a"
    },
    {
      "anonymous": false,
      "inputs": [
        {
          "indexed": false,
          "name": "manager",
          "type": "address"
        },
        {
          "indexed": false,
          "name": "description",
          "type": "string"
        }
      ],
      "name": "CreateNewGameSuccessfully",
      "type": "event",
      "signature": "0x4a572f8e12b1c7888b1de28ac02f1aa3b6b9e92e41f35d5a19ba22e8e65535fe"
    },
    {
      "constant": false,
      "inputs": [],
      "name": "new_game",
      "outputs": [],
      "payable": false,
      "stateMutability": "nonpayable",
      "type": "function",
      "signature": "0x4c856460"
    },
    {
      "constant": false,
      "inputs": [
        {
          "name": "prediction",
          "type": "uint256"
        }
      ],
      "name": "bet",
      "outputs": [
        {
          "name": "",
          "type": "bool"
        }
      ],
      "payable": true,
      "stateMutability": "payable",
      "type": "function",
      "signature": "0x7365870b"
    },
    {
      "constant": false,
      "inputs": [
        {
          "name": "final_res",
          "type": "uint256"
        }
      ],
      "name": "run_lottery",
      "outputs": [],
      "payable": false,
      "stateMutability": "nonpayable",
      "type": "function",
      "signature": "0x9c4a582f"
    },
    {
      "constant": false,
      "inputs": [
        {
          "name": "new_people_in_need",
          "type": "address"
        },
        {
          "name": "amount",
          "type": "uint256"
        }
      ],
      "name": "add_or_update_amount",
      "outputs": [],
      "payable": false,
      "stateMutability": "nonpayable",
      "type": "function",
      "signature": "0x45beb6f8"
    },
    {
      "constant": false,
      "inputs": [
        {
          "name": "amount",
          "type": "uint256"
        }
      ],
      "name": "get_relief",
      "outputs": [],
      "payable": false,
      "stateMutability": "nonpayable",
      "type": "function",
      "signature": "0x04badf1a"
    }
  ],
  "bytecode": "0x608060405234801561001057600080fd5b5033600560006101000a81548173ffffffffffffffffffffffffffffffffffffffff021916908373ffffffffffffffffffffffffffffffffffffffff160217905550600060048190555060008081905550670de0b6b3a764000060028190555060036040805190810160405280600054815260200160018152509080600181540180825580915050906001820390600052602060002090600302016000909192909190915060008201518160000155602082015181600101555050506110c4806100db6000396000f3fe6080604052600436106100af576000357c0100000000000000000000000000000000000000000000000000000000900463ffffffff16806304badf1a146100b457806319d41c69146100ef57806345beb6f81461011a57806348a526b4146101755780634c856460146101cc5780636b31ee01146101e35780637365870b1461020e5780637be2d6d5146102545780639c4a582f146102aa578063b83ff25f146102e5578063c02dd5e51461034a575b600080fd5b3480156100c057600080fd5b506100ed600480360360208110156100d757600080fd5b8101908080359060200190929190505050610375565b005b3480156100fb57600080fd5b50610104610589565b6040518082815260200191505060405180910390f35b34801561012657600080fd5b506101736004803603604081101561013d57600080fd5b81019080803573ffffffffffffffffffffffffffffffffffffffff1690602001909291908035906020019092919050505061058f565b005b34801561018157600080fd5b5061018a61073b565b604051808273ffffffffffffffffffffffffffffffffffffffff1673ffffffffffffffffffffffffffffffffffffffff16815260200191505060405180910390f35b3480156101d857600080fd5b506101e1610761565b005b3480156101ef57600080fd5b506101f861094e565b6040518082815260200191505060405180910390f35b61023a6004803603602081101561022457600080fd5b8101908080359060200190929190505050610954565b604051808215151515815260200191505060405180910390f35b34801561026057600080fd5b5061028d6004803603602081101561027757600080fd5b8101908080359060200190929190505050610cf6565b604051808381526020018281526020019250505060405180910390f35b3480156102b657600080fd5b506102e3600480360360208110156102cd57600080fd5b8101908080359060200190929190505050610d29565b005b3480156102f157600080fd5b506103346004803603602081101561030857600080fd5b81019080803573ffffffffffffffffffffffffffffffffffffffff16906020019092919050505061107a565b6040518082815260200191505060405180910390f35b34801561035657600080fd5b5061035f611092565b6040518082815260200191505060405180910390f35b6000600660003373ffffffffffffffffffffffffffffffffffffffff1673ffffffffffffffffffffffffffffffffffffffff1681526020019081526020016000205411151561042c576040517f08c379a00000000000000000000000000000000000000000000000000000000081526004018080602001828103825260168152602001807f53656e646572206e6f7420617574686f72697a65642e0000000000000000000081525060200191505060405180910390fd5b80600660003373ffffffffffffffffffffffffffffffffffffffff1673ffffffffffffffffffffffffffffffffffffffff168152602001908152602001600020541115156104e2576040517f08c379a00000000000000000000000000000000000000000000000000000000081526004018080602001828103825260138152602001807f206e6f20656e6f756768206465706f736974210000000000000000000000000081525060200191505060405180910390fd5b80600660003373ffffffffffffffffffffffffffffffffffffffff1673ffffffffffffffffffffffffffffffffffffffff16815260200190815260200160002060008282540392505081905550806004600082825403925050819055503373ffffffffffffffffffffffffffffffffffffffff166108fc829081150290604051600060405180830381858888f19350505050158015610585573d6000803e3d6000fd5b5050565b60025481565b600560009054906101000a900473ffffffffffffffffffffffffffffffffffffffff1673ffffffffffffffffffffffffffffffffffffffff163373ffffffffffffffffffffffffffffffffffffffff1614151561067a576040517f08c379a000000000000000000000000000000000000000000000000000000000815260040180806020018281038252603e8152602001807f7065726d697373696f6e2064656e792120746869732066756e6374696f6e206381526020017f616e206f6e6c7920696e766f6b656420627920746865206d616e61676572000081525060400191505060405180910390fd5b806004541115156106f3576040517f08c379a00000000000000000000000000000000000000000000000000000000081526004018080602001828103825260108152602001807f6e6f7420656e6f756768206d6f6e65790000000000000000000000000000000081525060200191505060405180910390fd5b80600660008473ffffffffffffffffffffffffffffffffffffffff1673ffffffffffffffffffffffffffffffffffffffff168152602001908152602001600020819055505050565b600560009054906101000a900473ffffffffffffffffffffffffffffffffffffffff1681565b600560009054906101000a900473ffffffffffffffffffffffffffffffffffffffff1673ffffffffffffffffffffffffffffffffffffffff163373ffffffffffffffffffffffffffffffffffffffff16141515610826576040517f08c379a00000000000000000000000000000000000000000000000000000000081526004018080602001828103825260168152602001807f53656e646572206e6f7420617574686f72697a65642e0000000000000000000081525060200191505060405180910390fd5b60016000540160008190555060036040805190810160405280600054815260200160008152509080600181540180825580915050906001820390600052602060002090600302016000909192909190915060008201518160000155602082015181600101555050507f4a572f8e12b1c7888b1de28ac02f1aa3b6b9e92e41f35d5a19ba22e8e65535fe600560009054906101000a900473ffffffffffffffffffffffffffffffffffffffff16604051808273ffffffffffffffffffffffffffffffffffffffff1673ffffffffffffffffffffffffffffffffffffffff168152602001806020018281038252600f8152602001807f6f70656e206e65772067616d65212100000000000000000000000000000000008152506020019250505060405180910390a1565b60015481565b6000600560009054906101000a900473ffffffffffffffffffffffffffffffffffffffff1673ffffffffffffffffffffffffffffffffffffffff163373ffffffffffffffffffffffffffffffffffffffff1614151515610a42576040517f08c379a00000000000000000000000000000000000000000000000000000000081526004018080602001828103825260258152602001807f6d616e616765722063616e27742074616b65207061727420696e20746869732081526020017f67616d652e00000000000000000000000000000000000000000000000000000081525060400191505060405180910390fd5b60025434141515610ae1576040517f08c379a00000000000000000000000000000000000000000000000000000000081526004018080602001828103825260388152602001807f76616c7565207769746820746865207472616e73616374696f6e206d7573742081526020017f626520657175616c20746f207469636b6574207072696365000000000000000081525060400191505060405180910390fd5b600015156003600054815481101515610af657fe5b9060005260206000209060030201600201600084815260200190815260200160002060000160009054906101000a900460ff161515141515610ba0576040517f08c379a000000000000000000000000000000000000000000000000000000000815260040180806020018281038252601a8152602001807f74686973206e756d62657220686173206265656e2074616b656e00000000000081525060200191505060405180910390fd5b600015156003600054815481101515610bb557fe5b9060005260206000209060030201600201600084815260200190815260200160002060000160009054906101000a900460ff1615151415610cec5760016003600054815481101515610c0357fe5b9060005260206000209060030201600201600084815260200190815260200160002060000160006101000a81548160ff021916908315150217905550336003600054815481101515610c5157fe5b9060005260206000209060030201600201600084815260200190815260200160002060000160016101000a81548173ffffffffffffffffffffffffffffffffffffffff021916908373ffffffffffffffffffffffffffffffffffffffff160217905550670dbd2fc137a30000600160008282540192505081905550662386f26fc1000060046000828254019250508190555060019050610cf1565b600090505b919050565b600381815481101515610d0557fe5b90600052602060002090600302016000915090508060000154908060010154905082565b600560009054906101000a900473ffffffffffffffffffffffffffffffffffffffff1673ffffffffffffffffffffffffffffffffffffffff163373ffffffffffffffffffffffffffffffffffffffff16141515610dee576040517f08c379a00000000000000000000000000000000000000000000000000000000081526004018080602001828103825260168152602001807f53656e646572206e6f7420617574686f72697a65642e0000000000000000000081525060200191505060405180910390fd5b80600081111515610e67576040517f08c379a00000000000000000000000000000000000000000000000000000000081526004018080602001828103825260168152602001807f696e76616c6964207469636b6574206e756d6265722e0000000000000000000081525060200191505060405180910390fd5b816003600054815481101515610e7957fe5b906000526020600020906003020160010181905550600115156003600054815481101515610ea357fe5b9060005260206000209060030201600201600084815260200190815260200160002060000160009054906101000a900460ff16151514156110765760006003600054815481101515610ef157fe5b9060005260206000209060030201600201600084815260200190815260200160002060000160019054906101000a900473ffffffffffffffffffffffffffffffffffffffff1690506003600054815481101515610f4a57fe5b9060005260206000209060030201600201600084815260200190815260200160002060000160019054906101000a900473ffffffffffffffffffffffffffffffffffffffff1673ffffffffffffffffffffffffffffffffffffffff166108fc6001549081150290604051600060405180830381858888f19350505050158015610fd7573d6000803e3d6000fd5b507f54dd00ed807cc04e73aa7d7ca7fc5d2f8fb39facd1bbf6a92cda609039d9788a81604051808273ffffffffffffffffffffffffffffffffffffffff1673ffffffffffffffffffffffffffffffffffffffff168152602001806020018281038252600f8152602001807f77696e6e65722074616b6520616c6c00000000000000000000000000000000008152506020019250505060405180910390a1505b5050565b60066020528060005260406000206000915090505481565b6004548156fea165627a7a723058201f2339d85dfaa7a35f1687e5c74548eeb43d9841ee53ca9e22e3ac94c9d7c6050029",
  "source": "pragma solidity ^0.5.0;\r\n\r\ncontract Lottery {\r\n    \r\n    struct Player {\r\n        bool is_value;\r\n        address payable my_address;\r\n    }\r\n    \r\n    struct Game {\r\n        uint round_num;\r\n        uint res;\r\n        mapping(uint => Player) record;\r\n    }\r\n    \r\n    uint round_num;\r\n\r\n    uint public jackpot;\r\n    \r\n    uint public ticket_price;\r\n    \r\n    // 记录\r\n    Game[] public all_games;\r\n\r\n    // 用于慈善的钱数\r\n    uint public money_for_charity;\r\n    \r\n    //     \r\n    address payable public trusted_manager;\r\n    \r\n    // uint represent the amount of money people can get\r\n    mapping(address => uint) public registered_people_in_need;\r\n    \r\n\r\n    modifier onlyByManager() {\r\n        require(\r\n            msg.sender == trusted_manager,\r\n            \"Sender not authorized.\"\r\n        );\r\n        _;\r\n    }\r\n    \r\n    modifier onlyByRegisteredPeople() {\r\n        require(\r\n            registered_people_in_need[msg.sender] > 0,\r\n            \"Sender not authorized.\"\r\n        );\r\n        _;\r\n    }\r\n    \r\n    modifier onlyValidTicketNumber(uint num) {\r\n        require(\r\n            num > 0,\r\n            \"invalid ticket number.\"\r\n        );\r\n        _;\r\n    }\r\n    \r\n    modifier needGameRunning() {\r\n        require(\r\n            all_games[round_num].res == 0,\r\n            \"no running game. please wait for manager publish new game.\"\r\n        );\r\n        _;\r\n    }\r\n    \r\n    event CongratulationToWinner(address winner, string description);\r\n    \r\n    event CreateNewGameSuccessfully(address manager, string description);\r\n\r\n\r\n    constructor() public {\r\n        trusted_manager = msg.sender;\r\n        money_for_charity = 0;\r\n        round_num = 0;\r\n        ticket_price = 1 ether;\r\n        // initial game\r\n        all_games.push(Game({\r\n            round_num: round_num, \r\n            res: 1\r\n        }));\r\n        \r\n    }\r\n    \r\n    function new_game() public onlyByManager{\r\n        round_num = round_num + 1;\r\n        all_games.push(Game({\r\n            round_num: round_num, \r\n            res: 0\r\n        }));\r\n        emit CreateNewGameSuccessfully(trusted_manager, \"open new game!!\");\r\n    }\r\n    \r\n    function bet(uint prediction) public payable returns(bool) {\r\n        // @params: id, 第几轮游戏\r\n        // @params: prediction,  玩家压的注\r\n\r\n        require(\r\n            msg.sender != trusted_manager,\r\n            \"manager can't take part in this game.\");\r\n        require(\r\n            msg.value == ticket_price,\r\n            \"value with the transaction must be equal to ticket price\");\r\n        require(\r\n            all_games[round_num].record[prediction].is_value == false,\r\n            \"this number has been taken\");\r\n        if(all_games[round_num].record[prediction].is_value == false) {\r\n            all_games[round_num].record[prediction].is_value = true;\r\n            all_games[round_num].record[prediction].my_address = msg.sender;\r\n            jackpot += 0.99 ether; \r\n            money_for_charity += 0.01 ether;\r\n            return true;\r\n        }\r\n        return false;\r\n    }\r\n    \r\n    function run_lottery(uint final_res) public \r\n        onlyByManager  \r\n        onlyValidTicketNumber(final_res) {\r\n        all_games[round_num].res = final_res;\r\n        if(all_games[round_num].record[final_res].is_value == true) {\r\n            address tmp = all_games[round_num].record[final_res].my_address;\r\n            all_games[round_num].record[final_res].my_address.transfer(jackpot);\r\n            emit CongratulationToWinner(tmp, \"winner take all\");\r\n        }\r\n    }\r\n\r\n\r\n    // 更新最近受助者的接受资助的数额\r\n    function add_or_update_amount(address new_people_in_need, uint amount) public {\r\n        require(\r\n            msg.sender == trusted_manager,\r\n            \"permission deny! this function can only invoked by the manager\");    \r\n\r\n        require(\r\n            money_for_charity > amount,\r\n            \"not enough money\");\r\n        \r\n        registered_people_in_need[new_people_in_need] = amount;    \r\n    }\r\n    \r\n    function get_relief(uint amount) public onlyByRegisteredPeople {\r\n        require(registered_people_in_need[msg.sender] > amount, \r\n        \" no enough deposit!\");\r\n        registered_people_in_need[msg.sender] -= amount;\r\n        money_for_charity -= amount;\r\n        msg.sender.transfer(amount);\r\n    }\r\n\r\n    \r\n}",
  "sourcePath": "C:/Users/Th/Desktop/ethereum_dev/final_proj/contracts/Lottery.sol",
  "compiler": {
    "name": "solc",
    "version": "0.5.0+commit.1d4f565a.Emscripten.clang"
  },
  "schemaVersion": "3.0.0",
  "updatedAt": "2018-12-26T05:40:43.056Z",
  "devdoc": {
    "methods": {}
  },
  "userdoc": {
    "methods": {}
  }
}