{
  "contractName": "Lottery",
  "abi": [
    {
      "constant": true,
      "inputs": [],
      "name": "round_num",
      "outputs": [
        {
          "name": "",
          "type": "uint256"
        }
      ],
      "payable": false,
      "stateMutability": "view",
      "type": "function",
      "signature": "0x078b7870"
    },
    {
      "constant": true,
      "inputs": [
        {
          "name": "",
          "type": "address"
        }
      ],
      "name": "reward_record",
      "outputs": [
        {
          "name": "",
          "type": "uint256"
        }
      ],
      "payable": false,
      "stateMutability": "view",
      "type": "function",
      "signature": "0x180e08df"
    },
    {
      "constant": true,
      "inputs": [],
      "name": "ticket_price",
      "outputs": [
        {
          "name": "",
          "type": "uint256"
        }
      ],
      "payable": false,
      "stateMutability": "view",
      "type": "function",
      "signature": "0x19d41c69"
    },
    {
      "constant": true,
      "inputs": [],
      "name": "trusted_manager",
      "outputs": [
        {
          "name": "",
          "type": "address"
        }
      ],
      "payable": false,
      "stateMutability": "view",
      "type": "function",
      "signature": "0x48a526b4"
    },
    {
      "constant": true,
      "inputs": [],
      "name": "jackpot",
      "outputs": [
        {
          "name": "",
          "type": "uint256"
        }
      ],
      "payable": false,
      "stateMutability": "view",
      "type": "function",
      "signature": "0x6b31ee01"
    },
    {
      "constant": true,
      "inputs": [
        {
          "name": "",
          "type": "uint256"
        }
      ],
      "name": "all_games",
      "outputs": [
        {
          "name": "round_num",
          "type": "uint256"
        },
        {
          "name": "res",
          "type": "uint256"
        }
      ],
      "payable": false,
      "stateMutability": "view",
      "type": "function",
      "signature": "0x7be2d6d5"
    },
    {
      "constant": true,
      "inputs": [
        {
          "name": "",
          "type": "address"
        }
      ],
      "name": "registered_people_in_need",
      "outputs": [
        {
          "name": "",
          "type": "uint256"
        }
      ],
      "payable": false,
      "stateMutability": "view",
      "type": "function",
      "signature": "0xb83ff25f"
    },
    {
      "constant": true,
      "inputs": [],
      "name": "money_for_charity",
      "outputs": [
        {
          "name": "",
          "type": "uint256"
        }
      ],
      "payable": false,
      "stateMutability": "view",
      "type": "function",
      "signature": "0xc02dd5e5"
    },
    {
      "inputs": [],
      "payable": false,
      "stateMutability": "nonpayable",
      "type": "constructor",
      "signature": "constructor"
    },
    {
      "anonymous": false,
      "inputs": [
        {
          "indexed": false,
          "name": "winner",
          "type": "address"
        },
        {
          "indexed": false,
          "name": "description",
          "type": "string"
        }
      ],
      "name": "CongratulationToWinner",
      "type": "event",
      "signature": "0x54dd00ed807cc04e73aa7d7ca7fc5d2f8fb39facd1bbf6a92cda609039d9788a"
    },
    {
      "anonymous": false,
      "inputs": [
        {
          "indexed": false,
          "name": "manager",
          "type": "address"
        },
        {
          "indexed": false,
          "name": "description",
          "type": "string"
        }
      ],
      "name": "CreateNewGameSuccessfully",
      "type": "event",
      "signature": "0x4a572f8e12b1c7888b1de28ac02f1aa3b6b9e92e41f35d5a19ba22e8e65535fe"
    },
    {
      "constant": true,
      "inputs": [],
      "name": "hasGameRunning",
      "outputs": [
        {
          "name": "",
          "type": "bool"
        }
      ],
      "payable": false,
      "stateMutability": "view",
      "type": "function",
      "signature": "0x0829dac1"
    },
    {
      "constant": false,
      "inputs": [],
      "name": "new_game",
      "outputs": [],
      "payable": false,
      "stateMutability": "nonpayable",
      "type": "function",
      "signature": "0x4c856460"
    },
    {
      "constant": false,
      "inputs": [
        {
          "name": "prediction",
          "type": "uint256"
        }
      ],
      "name": "bet",
      "outputs": [
        {
          "name": "",
          "type": "bool"
        }
      ],
      "payable": true,
      "stateMutability": "payable",
      "type": "function",
      "signature": "0x7365870b"
    },
    {
      "constant": false,
      "inputs": [
        {
          "name": "final_res",
          "type": "uint256"
        }
      ],
      "name": "run_lottery",
      "outputs": [],
      "payable": false,
      "stateMutability": "nonpayable",
      "type": "function",
      "signature": "0x9c4a582f"
    },
    {
      "constant": false,
      "inputs": [
        {
          "name": "new_people_in_need",
          "type": "address"
        },
        {
          "name": "amount",
          "type": "uint256"
        }
      ],
      "name": "add_or_update_amount",
      "outputs": [],
      "payable": false,
      "stateMutability": "nonpayable",
      "type": "function",
      "signature": "0x45beb6f8"
    },
    {
      "constant": false,
      "inputs": [],
      "name": "withdraw_rewards",
      "outputs": [],
      "payable": false,
      "stateMutability": "nonpayable",
      "type": "function",
      "signature": "0xc20a5997"
    },
    {
      "constant": false,
      "inputs": [
        {
          "name": "amount",
          "type": "uint256"
        }
      ],
      "name": "get_relief",
      "outputs": [],
      "payable": false,
      "stateMutability": "nonpayable",
      "type": "function",
      "signature": "0x04badf1a"
    }
  ],
  "bytecode": "0x608060405234801561001057600080fd5b5033600660006101000a81548173ffffffffffffffffffffffffffffffffffffffff021916908373ffffffffffffffffffffffffffffffffffffffff160217905550600060058190555060008081905550670de0b6b3a76400006002819055506003604080519081016040528060005481526020016001815250908060018154018082558091505090600182039060005260206000209060030201600090919290919091506000820151816000015560208201518160010155505050611352806100db6000396000f3fe6080604052600436106100db576000357c0100000000000000000000000000000000000000000000000000000000900463ffffffff16806304badf1a146100e0578063078b78701461011b5780630829dac114610146578063180e08df1461017557806319d41c69146101da57806345beb6f81461020557806348a526b4146102605780634c856460146102b75780636b31ee01146102ce5780637365870b146102f95780637be2d6d51461033f5780639c4a582f14610395578063b83ff25f146103d0578063c02dd5e514610435578063c20a599714610460575b600080fd5b3480156100ec57600080fd5b506101196004803603602081101561010357600080fd5b8101908080359060200190929190505050610477565b005b34801561012757600080fd5b5061013061068b565b6040518082815260200191505060405180910390f35b34801561015257600080fd5b5061015b610691565b604051808215151515815260200191505060405180910390f35b34801561018157600080fd5b506101c46004803603602081101561019857600080fd5b81019080803573ffffffffffffffffffffffffffffffffffffffff1690602001909291905050506106bd565b6040518082815260200191505060405180910390f35b3480156101e657600080fd5b506101ef6106d5565b6040518082815260200191505060405180910390f35b34801561021157600080fd5b5061025e6004803603604081101561022857600080fd5b81019080803573ffffffffffffffffffffffffffffffffffffffff169060200190929190803590602001909291905050506106db565b005b34801561026c57600080fd5b50610275610887565b604051808273ffffffffffffffffffffffffffffffffffffffff1673ffffffffffffffffffffffffffffffffffffffff16815260200191505060405180910390f35b3480156102c357600080fd5b506102cc6108ad565b005b3480156102da57600080fd5b506102e3610a9a565b6040518082815260200191505060405180910390f35b6103256004803603602081101561030f57600080fd5b8101908080359060200190929190505050610aa0565b604051808215151515815260200191505060405180910390f35b34801561034b57600080fd5b506103786004803603602081101561036257600080fd5b8101908080359060200190929190505050610e42565b604051808381526020018281526020019250505060405180910390f35b3480156103a157600080fd5b506103ce600480360360208110156103b857600080fd5b8101908080359060200190929190505050610e75565b005b3480156103dc57600080fd5b5061041f600480360360208110156103f357600080fd5b81019080803573ffffffffffffffffffffffffffffffffffffffff16906020019092919050505061117e565b6040518082815260200191505060405180910390f35b34801561044157600080fd5b5061044a611196565b6040518082815260200191505060405180910390f35b34801561046c57600080fd5b5061047561119c565b005b6000600760003373ffffffffffffffffffffffffffffffffffffffff1673ffffffffffffffffffffffffffffffffffffffff1681526020019081526020016000205411151561052e576040517f08c379a00000000000000000000000000000000000000000000000000000000081526004018080602001828103825260168152602001807f53656e646572206e6f7420617574686f72697a65642e0000000000000000000081525060200191505060405180910390fd5b80600760003373ffffffffffffffffffffffffffffffffffffffff1673ffffffffffffffffffffffffffffffffffffffff168152602001908152602001600020541115156105e4576040517f08c379a00000000000000000000000000000000000000000000000000000000081526004018080602001828103825260138152602001807f206e6f20656e6f756768206465706f736974210000000000000000000000000081525060200191505060405180910390fd5b80600760003373ffffffffffffffffffffffffffffffffffffffff1673ffffffffffffffffffffffffffffffffffffffff16815260200190815260200160002060008282540392505081905550806005600082825403925050819055503373ffffffffffffffffffffffffffffffffffffffff166108fc829081150290604051600060405180830381858888f19350505050158015610687573d6000803e3d6000fd5b5050565b60005481565b60008060036000548154811015156106a557fe5b90600052602060002090600302016001015414905090565b60046020528060005260406000206000915090505481565b60025481565b600660009054906101000a900473ffffffffffffffffffffffffffffffffffffffff1673ffffffffffffffffffffffffffffffffffffffff163373ffffffffffffffffffffffffffffffffffffffff161415156107c6576040517f08c379a000000000000000000000000000000000000000000000000000000000815260040180806020018281038252603e8152602001807f7065726d697373696f6e2064656e792120746869732066756e6374696f6e206381526020017f616e206f6e6c7920696e766f6b656420627920746865206d616e61676572000081525060400191505060405180910390fd5b8060055411151561083f576040517f08c379a00000000000000000000000000000000000000000000000000000000081526004018080602001828103825260108152602001807f6e6f7420656e6f756768206d6f6e65790000000000000000000000000000000081525060200191505060405180910390fd5b80600760008473ffffffffffffffffffffffffffffffffffffffff1673ffffffffffffffffffffffffffffffffffffffff168152602001908152602001600020819055505050565b600660009054906101000a900473ffffffffffffffffffffffffffffffffffffffff1681565b600660009054906101000a900473ffffffffffffffffffffffffffffffffffffffff1673ffffffffffffffffffffffffffffffffffffffff163373ffffffffffffffffffffffffffffffffffffffff16141515610972576040517f08c379a00000000000000000000000000000000000000000000000000000000081526004018080602001828103825260168152602001807f53656e646572206e6f7420617574686f72697a65642e0000000000000000000081525060200191505060405180910390fd5b60016000540160008190555060036040805190810160405280600054815260200160008152509080600181540180825580915050906001820390600052602060002090600302016000909192909190915060008201518160000155602082015181600101555050507f4a572f8e12b1c7888b1de28ac02f1aa3b6b9e92e41f35d5a19ba22e8e65535fe600660009054906101000a900473ffffffffffffffffffffffffffffffffffffffff16604051808273ffffffffffffffffffffffffffffffffffffffff1673ffffffffffffffffffffffffffffffffffffffff168152602001806020018281038252600f8152602001807f6f70656e206e65772067616d65212100000000000000000000000000000000008152506020019250505060405180910390a1565b60015481565b6000600660009054906101000a900473ffffffffffffffffffffffffffffffffffffffff1673ffffffffffffffffffffffffffffffffffffffff163373ffffffffffffffffffffffffffffffffffffffff1614151515610b8e576040517f08c379a00000000000000000000000000000000000000000000000000000000081526004018080602001828103825260258152602001807f6d616e616765722063616e27742074616b65207061727420696e20746869732081526020017f67616d652e00000000000000000000000000000000000000000000000000000081525060400191505060405180910390fd5b60025434141515610c2d576040517f08c379a00000000000000000000000000000000000000000000000000000000081526004018080602001828103825260388152602001807f76616c7565207769746820746865207472616e73616374696f6e206d7573742081526020017f626520657175616c20746f207469636b6574207072696365000000000000000081525060400191505060405180910390fd5b600015156003600054815481101515610c4257fe5b9060005260206000209060030201600201600084815260200190815260200160002060000160009054906101000a900460ff161515141515610cec576040517f08c379a000000000000000000000000000000000000000000000000000000000815260040180806020018281038252601a8152602001807f74686973206e756d62657220686173206265656e2074616b656e00000000000081525060200191505060405180910390fd5b600015156003600054815481101515610d0157fe5b9060005260206000209060030201600201600084815260200190815260200160002060000160009054906101000a900460ff1615151415610e385760016003600054815481101515610d4f57fe5b9060005260206000209060030201600201600084815260200190815260200160002060000160006101000a81548160ff021916908315150217905550336003600054815481101515610d9d57fe5b9060005260206000209060030201600201600084815260200190815260200160002060000160016101000a81548173ffffffffffffffffffffffffffffffffffffffff021916908373ffffffffffffffffffffffffffffffffffffffff160217905550670dbd2fc137a30000600160008282540192505081905550662386f26fc1000060056000828254019250508190555060019050610e3d565b600090505b919050565b600381815481101515610e5157fe5b90600052602060002090600302016000915090508060000154908060010154905082565b600660009054906101000a900473ffffffffffffffffffffffffffffffffffffffff1673ffffffffffffffffffffffffffffffffffffffff163373ffffffffffffffffffffffffffffffffffffffff16141515610f3a576040517f08c379a00000000000000000000000000000000000000000000000000000000081526004018080602001828103825260168152602001807f53656e646572206e6f7420617574686f72697a65642e0000000000000000000081525060200191505060405180910390fd5b80600081111515610fb3576040517f08c379a00000000000000000000000000000000000000000000000000000000081526004018080602001828103825260168152602001807f696e76616c6964207469636b6574206e756d6265722e0000000000000000000081525060200191505060405180910390fd5b816003600054815481101515610fc557fe5b906000526020600020906003020160010181905550600115156003600054815481101515610fef57fe5b9060005260206000209060030201600201600084815260200190815260200160002060000160009054906101000a900460ff161515141561117a576000600360005481548110151561103d57fe5b9060005260206000209060030201600201600084815260200190815260200160002060000160019054906101000a900473ffffffffffffffffffffffffffffffffffffffff169050600154600460008373ffffffffffffffffffffffffffffffffffffffff1673ffffffffffffffffffffffffffffffffffffffff1681526020019081526020016000206000828254019250508190555060006001819055507f54dd00ed807cc04e73aa7d7ca7fc5d2f8fb39facd1bbf6a92cda609039d9788a81604051808273ffffffffffffffffffffffffffffffffffffffff1673ffffffffffffffffffffffffffffffffffffffff168152602001806020018281038252600f8152602001807f77696e6e65722074616b6520616c6c00000000000000000000000000000000008152506020019250505060405180910390a1505b5050565b60076020528060005260406000206000915090505481565b60055481565b6000600460003373ffffffffffffffffffffffffffffffffffffffff1673ffffffffffffffffffffffffffffffffffffffff16815260200190815260200160002054111515611253576040517f08c379a00000000000000000000000000000000000000000000000000000000081526004018080602001828103825260138152602001807f6e6f2072657761726420666f7220796f7521210000000000000000000000000081525060200191505060405180910390fd5b6000600460003373ffffffffffffffffffffffffffffffffffffffff1673ffffffffffffffffffffffffffffffffffffffff1681526020019081526020016000205490506000600460003373ffffffffffffffffffffffffffffffffffffffff1673ffffffffffffffffffffffffffffffffffffffff168152602001908152602001600020819055503373ffffffffffffffffffffffffffffffffffffffff166108fc829081150290604051600060405180830381858888f19350505050158015611322573d6000803e3d6000fd5b505056fea165627a7a723058208b539c7ad7790c3e0089362c7dda82a1d0f762bd68cba762fcd76d956552f26b0029",
  "source": "    pragma solidity ^0.5.0;\r\n\r\ncontract Lottery {\r\n    \r\n    struct Player {\r\n        bool is_value;\r\n        address payable my_address;\r\n    }\r\n    \r\n    struct Game {\r\n        uint round_num;\r\n        uint res;\r\n        // uint : ticket number\r\n        mapping(uint => Player) record;\r\n    }\r\n    \r\n    uint public round_num;\r\n\r\n    uint public jackpot;\r\n    \r\n    uint public ticket_price;\r\n    \r\n    // 记录\r\n    Game[] public all_games;\r\n\r\n    // draw rewards\r\n    mapping(address => uint) public reward_record;\r\n    \r\n    // 用于慈善的钱数\r\n    uint public money_for_charity;\r\n    \r\n    // 管理者的地址\r\n    address payable public trusted_manager;\r\n    \r\n\r\n    // 确认当前是否有游戏正在进行\r\n    function hasGameRunning() public view returns(bool) {\r\n        return all_games[round_num].res == 0;\r\n    }\r\n    \r\n    // uint represent the amount of money people can get\r\n    mapping(address => uint) public registered_people_in_need;\r\n\r\n    modifier onlyByManager() {\r\n        require(\r\n            msg.sender == trusted_manager,\r\n            \"Sender not authorized.\"\r\n        );\r\n        _;\r\n    }\r\n    \r\n    modifier onlyByRegisteredPeople() {\r\n        require(\r\n            registered_people_in_need[msg.sender] > 0,\r\n            \"Sender not authorized.\"\r\n        );\r\n        _;\r\n    }\r\n    \r\n    modifier onlyValidTicketNumber(uint num) {\r\n        require(\r\n            num > 0,\r\n            \"invalid ticket number.\"\r\n        );\r\n        _;\r\n    }\r\n    \r\n    modifier needGameRunning() {\r\n        require(\r\n            all_games[round_num].res == 0,\r\n            \"no running game. please wait for manager publish new game.\"\r\n        );\r\n        _;\r\n    }\r\n    \r\n    event CongratulationToWinner(address winner, string description);\r\n    \r\n    event CreateNewGameSuccessfully(address manager, string description);\r\n\r\n\r\n    constructor() public {\r\n        trusted_manager = msg.sender;\r\n        money_for_charity = 0;\r\n        round_num = 0;\r\n        ticket_price = 1 ether;\r\n        // initial game\r\n        all_games.push(Game({\r\n            round_num: round_num, \r\n            res: 1\r\n        }));\r\n    }\r\n    \r\n    function new_game() public onlyByManager{\r\n        // 创建新游戏\r\n        round_num = round_num + 1;\r\n        all_games.push(Game({\r\n            round_num: round_num, \r\n            res: 0\r\n        }));\r\n        emit CreateNewGameSuccessfully(trusted_manager, \"open new game!!\");\r\n    }\r\n    \r\n    function bet(uint prediction) public payable returns(bool) {\r\n        // @params: id, 第几轮游戏\r\n        // @params: prediction,  玩家压的注\r\n\r\n        require(\r\n            msg.sender != trusted_manager,\r\n            \"manager can't take part in this game.\");\r\n        require(\r\n            msg.value == ticket_price,\r\n            \"value with the transaction must be equal to ticket price\");\r\n        require(\r\n            all_games[round_num].record[prediction].is_value == false,\r\n            \"this number has been taken\");\r\n        if(all_games[round_num].record[prediction].is_value == false) {\r\n            all_games[round_num].record[prediction].is_value = true;\r\n            all_games[round_num].record[prediction].my_address = msg.sender;\r\n            jackpot += 0.99 ether; \r\n            money_for_charity += 0.01 ether;\r\n            return true;\r\n        }\r\n        return false;\r\n    }\r\n    \r\n    function run_lottery(uint final_res) public \r\n        onlyByManager  \r\n        onlyValidTicketNumber(final_res) {\r\n        // 开奖，猜对的人可以可以拿走所有的奖金。\r\n        all_games[round_num].res = final_res;\r\n        if(all_games[round_num].record[final_res].is_value == true) {\r\n            address tmp = all_games[round_num].record[final_res].my_address;\r\n            // all_games[round_num].record[final_res].my_address.transfer(jackpot);\r\n            reward_record[tmp] += jackpot; \r\n            jackpot = 0;\r\n            emit CongratulationToWinner(tmp, \"winner take all\");\r\n        }       \r\n    }\r\n\r\n\r\n    // 更新最近受助者的接受资助的数额\r\n    function add_or_update_amount(address new_people_in_need, uint amount) public {\r\n        require(\r\n            msg.sender == trusted_manager,\r\n            \"permission deny! this function can only invoked by the manager\");    \r\n\r\n        require(\r\n            money_for_charity > amount,\r\n            \"not enough money\");\r\n        \r\n        registered_people_in_need[new_people_in_need] = amount;    \r\n    }\r\n    \r\n    function withdraw_rewards() public {\r\n        require(reward_record[msg.sender] > 0, \"no reward for you!!\");\r\n        // avoid attack\r\n        uint tmp = reward_record[msg.sender]; \r\n        reward_record[msg.sender] = 0;\r\n        msg.sender.transfer(tmp);\r\n    }\r\n    \r\n\r\n    // 收到补助的人可以获取\r\n    function get_relief(uint amount) public onlyByRegisteredPeople {\r\n        require(registered_people_in_need[msg.sender] > amount, \r\n        \" no enough deposit!\");\r\n        registered_people_in_need[msg.sender] -= amount;\r\n        money_for_charity -= amount;\r\n        msg.sender.transfer(amount);\r\n    }\r\n\r\n    \r\n}",
  "sourcePath": "C:/Users/z1wu1/Desktop/ethereum_dev/block_chain_course_proj/contracts/Lottery.sol",
  "compiler": {
    "name": "solc",
    "version": "0.5.0+commit.1d4f565a.Emscripten.clang"
  },
  "schemaVersion": "3.0.0",
  "updatedAt": "2018-12-31T07:38:54.247Z",
  "devdoc": {
    "methods": {}
  },
  "userdoc": {
    "methods": {}
  }
}